:1000000046C2000065C2000063C2000061C2000079
:100010005FC200005DC200005BC2000059C2000068
:1000200057C2000055C2000053C2000051C2000078
:100030004FC200004DC200004BC2000049C2000088
:1000400047C2000045C2000043C2000041C2000098
:100050003FC200003DC200003BC2000039C20000A8
:1000600037C2000035C2000033C2000031C20000B8
:100070002FC200002DC200002BC2000029C20000C8
:1000800027C2000025C2000023C2000021C20000D8
:100090001FC200001DC200001BC2000019C20000E8
:1000A00017C2000015C2000013C2000011C20000F8
:1000B0000FC200000DC200000BC2000009C2000008
:1000C00007C2000005C2000003C2000001C2000018
:1000D000FFC10000FDC10000FBC10000F9C100002C
:1000E000F7C10000F5C10000F3C10000F1C100003C
:1000F000EFC10000EDC10000EBC10000E9C100004C
:10010000E7C10000E5C10000E3C10000E1C100005B
:10011000DFC10000DDC10000DBC10000D9C100006B
:10012000D7C10000D5C10000D3C10000D1C100007B
:10013000CFC10000CDC10000CBC10000C9C100008B
:10014000C7C10000C5C10000C3C10000C1C100009B
:10015000BFC10000BDC10000BBC10000B9C10000AB
:10016000B7C10000B5C10000B3C10000B1C10000BB
:10017000AFC10000ADC10000ABC10000A9C10000CB
:10018000A7C10000A5C10000A3C10000A1C10000DB
:100190009FC100009DC100009BC1000099C10000EB
:1001A00097C1000095C1000093C1000091C10000FB
:1001B0008FC100008DC100008BC1000089C100000B
:1001C00087C1000085C1000083C1000081C100001B
:1001D0007FC100007DC100007BC1000079C100002B
:1001E00077C1000075C1000073C1000071C100003B
:1001F0006FC100006DC100006BC100000000000075
:10020000000000202020202000205050500000003E
:10021000005050F850F850502078A07028F020C0BE
:10022000C810204098186090A040A89068602040B6
:10023000000000001020404040201040201010100E
:100240002040005020F8205000002020F8202000FE
:1002500000000000602040000000F80000000000E6
:10026000000000606000081020408000708898A89E
:10027000C8887020602020202070708808102040DE
:10028000F8F810201008887010305090F81010F80E
:1002900080F008088870304080F0888870F8081076
:1002A00020404040708888708888707088887808FE
:1002B00010600060600060600000606000602040CE
:1002C000081020402010080000F800F800008040CE
:1002D0002010204080708808102000207088086856
:1002E000A8A87070888888F88888F08888F088883E
:1002F000F070888080808870E09088888890E0F82E
:100300008080F08080F8F88080E080808070888035
:1003100080988870888888F88888887020202020B5
:100320002070381010101090608890A0C0A09088A5
:10033000808080808080F888D8A88888888888888D
:10034000C8A898888870888888888870F08888F01D
:1003500080808070888888A89068F08888F0A09055
:1003600088788080700808F0F820202020202088DD
:1003700088888888887088888888885020888888B5
:10038000A8A8D8888888502050888888885020203D
:100390002020F80810204080F83820202020203825
:1003A00000804020100800E02020202020E0205085
:1003B0008800000000000000000000F8402010004D
:1003C000000000000070087888788080B0C88888B5
:1003D000F00000708080887008086898888878002D
:1003E000007088F88070304840E04040400000785D
:1003F000887808308080B0C88888882000602020F5
:1004000020701000301010906040404850605048FC
:10041000602020202020700000D0A8A8888800003C
:10042000B0C8888888000070888888700000F088CC
:10043000F08080000068987808080000B0C88080CC
:1004400080000070807008F04040E040404830007C
:100450000088888898680000888888502000008874
:1004600088A8A8500000885020508800008888780C
:1004700008700000F8102040F810202040202010C4
:100480002020202020202040202010202040112447
:100490001FBECFEFCDBFDFE5DEBF00E00CBF10E237
:1004A000A0E0B0E2E8E8F9E100E00BBF02C007908D
:1004B0000D92AC3CB107D9F722E2ACECB0E201C03E
:1004C0001D92AE3CB207E1F70E94F60B0C94C20CF1
:1004D00097CDBF92CF92DF92EF92FF920F931F932F
:1004E000CF93DF931F92CDB7DEB788E0E0E0F6E070
:1004F000868385830F2EFBE2BF2EF02DB98280EA22
:1005000099E0EAD6C12CD12C760100E412E42FE068
:1005100030E043E0BE016F5F7F4F80EA99E00BD788
:1005200000E616E0FF24F394F801F682B982BE01DA
:100530006F5F7F4F80EA99E018D7F801F682E0EA12
:10054000F9E0818185FFFDCF80EA8093A009E0EA90
:10055000F9E0818186FFFDCFE0EAF9E080E4818364
:100560008081BE016F5F7F4F80EA99E014D78BE2F4
:100570008983BE016F5F7F4F80EA99E0F6D681E004
:10058000E0E6F6E08683E0EAF9E0818185FFFDCFD1
:1005900086EA8093A009E0EAF9E0818186FFFDCF39
:1005A000E0EAF9E080E481838081BE016F5F7F4FE4
:1005B00080EA99E0F0D68BE28983BE016F5F7F4FBE
:1005C00080EA99E0D2D681E0E0E6F6E08683E0EAD0
:1005D000F9E0818185FFFDCF88EC8093A009E0EAF6
:1005E000F9E0818186FFFDCFE0EAF9E080E48183D4
:1005F0008081BE016F5F7F4F80EA99E0CCD68BE2AD
:100600008983BE016F5F7F4F80EA99E0AED681E0BB
:10061000E0E6F6E08683E0EAF9E0818185FFFDCF40
:1006200082EA8093A009E0EAF9E0818186FFFDCFAC
:10063000E0EAF9E080E481838081BE016F5F7F4F53
:1006400080EA99E0A8D68BE28983BE016F5F7F4F75
:1006500080EA99E08AD681E0E0E6F6E08683E0EA87
:10066000F9E0818185FFFDCF8FE28093A009E0EA68
:10067000F9E0818186FFFDCFE0EAF9E080E4818343
:100680008081BE016F5F7F4F80EA99E084D68BE264
:100690008983BE016F5F7F4F80EA99E066D681E073
:1006A000E0E6F6E08683E0EAF9E0818185FFFDCFB0
:1006B00088EF8093A009E0EAF9E0818186FFFDCF11
:1006C000E0EAF9E080E481838081BE016F5F7F4FC3
:1006D00080EA99E060D68BE28983BE016F5F7F4F2D
:1006E00080EA99E042D681E0E0E6F6E08683E0EA3F
:1006F000F9E0818185FFFDCF1092A009E0EAF9E0E1
:10070000818186FFFDCFE0EAF9E080E4818380818A
:10071000BE016F5F7F4F80EA99E03DD68BE289830F
:10072000BE016F5F7F4F80EA99E01FD681E0E0E66F
:10073000F6E08683E0EAF9E0818185FFFDCF81E282
:100740008093A009E0EAF9E0818186FFFDCFE0EA2D
:10075000F9E080E481838081BE016F5F7F4F80EA92
:1007600099E019D68BE28983BE016F5F7F4F80EAE3
:1007700099E0FBD581E0E0E6F6E08683E0EAF9E087
:10078000818185FFFDCF81E88093A009E0EAF9E04F
:10079000818186FFFDCFE0EAF9E080E481838081FA
:1007A000BE016F5F7F4F80EA99E0F5D58BE28983C8
:1007B000BE016F5F7F4F80EA99E0D7D581E0E0E628
:1007C000F6E08683E0EAF9E0818185FFFDCF81E2F2
:1007D0008093A009E0EAF9E0818186FFFDCFE0EA9D
:1007E000F9E080E481838081BE016F5F7F4F80EA02
:1007F00099E0D1D58BE28983BE016F5F7F4F80EA9C
:1008000099E0B3D581E0E0E6F6E08683E0EAF9E03E
:10081000818185FFFDCF8FEA8093A009E0EAF9E0AE
:10082000818186FFFDCFE0EAF9E080E48183808169
:10083000BE016F5F7F4F80EA99E0ADD50F90DF91E9
:10084000CF911F910F91FF90EF90DF90CF90BF90CD
:100850000895FF920F931F93CF93DF931F92CDB70D
:10086000DEB7F82E062F142FB1D58F2D8F70806B29
:10087000F82E8BE28983BE016F5F7F4F80EA99E09B
:1008800074D581E0E0E6F6E08683E0EAF9E0918164
:1008900095FFFDCFF092A009E0EAF9E0818186FFA3
:1008A000FDCFE0EAF9E080E481838081BE016F5FE3
:1008B0007F4F80EA99E06FD5802F8F7782958F7078
:1008C0008061F82E8BE28983BE016F5F7F4F80EAE3
:1008D00099E04BD581E0E0E6F6E08683E0EAF9E0D6
:1008E000818185FFFDCFF092A009E0EAF9E08181E6
:1008F00086FFFDCFE0EAF9E080E481838081BE01DC
:100900006F5F7F4F80EA99E046D50F708BE2898355
:10091000BE016F5F7F4F80EA99E027D581E0E0E676
:10092000F6E08683E0EAF9E0818185FFFDCF009360
:10093000A009E0EAF9E0818186FFFDCFE0EAF9E075
:1009400080E481838081BE016F5F7F4F80EA99E000
:1009500022D58BE28983BE016F5F7F4F80EA99E0E9
:1009600004D581E0E0E6F6E08583E0EAF9E0818104
:1009700085FFFDCF1093A009E0EAF9E0818186FFB1
:10098000FDCFE0EAF9E080E48183808181E0E0E668
:10099000F6E08683BE016F5F7F4F80EA99E0FBD46B
:1009A0000F90DF91CF911F910F91FF9008950F93BA
:1009B0001F93CF93DF931F92CDB7DEB78CEC90E2FD
:1009C00000D587DD8BE28983BE016F5F7F4F80EAB0
:1009D00099E0CBD481E0E0E6F6E08683E0EAF9E056
:1009E000818185FFFDCF80E48093A009E0EAF9E0F2
:1009F000818186FFFDCFE0EAF9E080E48183808198
:100A0000BE016F5F7F4F80EA99E0C5D400E00AC065
:100A100040E0612F802F1DDF1F5F1038C9F70F5F87
:100A2000043011F010E0F4CF0F90DF91CF911F91BF
:100A30000F910895FF920F931F93CF93DF93182F79
:100A4000042F882374F1603260F5F62EF694F69444
:100A5000F6942F2D30E0319521953109220F331F67
:100A6000220F331F220F331F260F311DE1E0F0E06C
:100A7000EF0102C0CC0FDD1F2A95E2F7682F8F2D02
:100A8000B4D4013021F028F0023031F006C08C2BB4
:100A900004C0C0958C2301C08C27482F612F8F2D57
:100AA000D8DEDF91CF911F910F91FF9008959DC4E3
:100AB0000895FC0181818823ECF7808108954F928D
:100AC0005F926F927F928F929F92AF92BF92CF92DE
:100AD000DF92EF92FF920F931F93CF93DF93EC017E
:100AE0004A015B0128013901D901C801689412F853
:100AF000B695A795979587951694D1F7B901A80152
:100B0000032E36E176956795579547953A95D1F737
:100B1000302D2C8122FD08C0B695A7959795879515
:100B2000769567955795479588159905AA05BB054C
:100B300008F4A2C084169506A606B70608F49EC05F
:100B40008C8182FD04C0880C991CAA1CBB1CC301AB
:100B5000B201A5019401F4D62F3F3105410551059D
:100B600008F48EC0C12CD12C7601CA9419EF05C0AF
:100B70002C153D054E055F0568F0CC0CDD1CEE1C08
:100B8000FF1C1D3F14F46894C0F81F5F173081F7F5
:100B9000212F4EC0212F11230CF04AC0D501C401D2
:100BA000880F991FAA1FBB1F880F991FAA1FBB1F61
:100BB000880F991FAA1FBB1F481A590A6A0A7B0A85
:100BC0001E3FECF46DEF7FEF611B710917FD73950C
:100BD00004C0440C551C661C771C6A95D2F7D501DD
:100BE000C401B695A79597958795BC01CD01640D75
:100BF000751D861D971DA5019401A2D634C023E062
:100C0000210FD501C40104C0880F991FAA1FBB1F63
:100C10002A95D2F79C01AD01B695A7959795879532
:100C2000BC01CD01640D751D861D971D89D61BC0A5
:100C30002D5FD501C40104C0880F991FAA1FBB1FD7
:100C40002A95D2F79C01AD01B695A7959795879502
:100C5000BC01CD01640D751D861D971D71D62150F7
:100C6000310941095109832F8F701295107F182B7C
:100C70001F832E8381E018C080E016C080E014C07E
:100C8000D501C401880F991FAA1FBB1F880F991F88
:100C9000AA1FBB1F880F991FAA1FBB1F481A590AFA
:100CA0006A0A7B0A19EF8ECFDF91CF911F910F91C6
:100CB000FF90EF90DF90CF90BF90AF909F908F907C
:100CC0007F906F905F904F9008950F931F93CF93F5
:100CD000DF93EC018B01009709F4E6C0803C91059D
:100CE00021F460E180E02BD4DFC0C03881E0D80778
:100CF00021F462E080E023D4D7C0C115E1E0DE0733
:100D000021F461E080E01BD4CFC0C038F3E0DF07FE
:100D100021F461E081E013D4C7C0C03983E0D80773
:100D200021F461E082E00BD4BFC0C115E2E0DE0730
:100D300021F462E081E003D4B7C0C034F2E0DF0701
:100D400021F462E082E0FBD3AFC0C03283E0D80779
:100D500021F464E082E0F3D3A7C0C115E8E0DE0728
:100D600021F461E083E0EBD39FC0C115F9E0DF0718
:100D700021F461E084E0E3D397C0C1158AE0D8078D
:100D800021F461E085E0DBD38FC0C115EBE0DE0725
:100D900021F461E086E0D3D387C0C034F8E0DF07F8
:100DA00021F462E083E0CBD37FC0C03489E0D80770
:100DB00021F462E084E0C3D377C0C034EAE0DE0708
:100DC00021F462E085E0BBD36FC0C039F8E0DF07F3
:100DD00021F464E083E0B3D367C0C03989E0D80769
:100DE00021F464E084E0ABD35FC0C039EAE0DE0701
:100DF00021F464E085E0A3D357C0C039FBE0DF07EE
:100E000021F464E086E09BD34FC0C03C88E0D80763
:100E100021F468E083E093D347C0C03CE9E0DE07FB
:100E200021F468E084E08BD33FC0C03AF8E0DF07EC
:100E300021F460E183E083D337C0C03A89E0D8076A
:100E400021F460E184E07BD32FC0C03AEAE0DE0702
:100E500021F460E185E073D327C0C03AFBE0DF07EF
:100E600021F460E186E06BD31FC0C03B88E0D80767
:100E700021F460E283E063D317C0C03BE9E0DE0702
:100E800021F460E284E05BD30FC0C038F4E0DF07F8
:100E900021F460E483E053D307C0C03A84E0D8076C
:100EA00019F460E485E04BD38D818F738D83F80155
:100EB00094818581892B9681992311F098E001C056
:100EC00090E0892B8D83F80140815181628173818B
:100ED00000E814E82EE130E0CE01F1DD9C8198605D
:100EE0009C839C8190619C83DF91CF911F910F9196
:100EF0000895CF92DF92EF92FF920F931F93CF93BB
:100F0000DF93EC0168017901F694E794D794C794D4
:100F10004C155D056E057F0570F46A017B01CC0CF4
:100F2000DD1CEE1CFF1CC901B801A701960108D504
:100F30002150310902C020E030E0832F8F708F8371
:100F40002E83DF91CF911F910F91FF90EF90DF9053
:100F5000CF900895FF920F931F93CF93DF93EC01EF
:100F60008B01009709F49BC1803C910521F460E15D
:100F700080E0E5D294C1803821E0920721F462E05C
:100F800080E0DDD28CC1C11581E0D80721F461E099
:100F900080E0D5D284C1C038E3E0DE0721F461E00F
:100FA00081E0CDD27CC1C039F3E0DF0721F461E0FC
:100FB00082E0C5D274C1C11522E0D20721F462E0FB
:100FC00081E0BDD26CC1C03482E0D80721F462E078
:100FD00082E0B5D264C1C032E3E0DE0721F464E010
:100FE00082E0ADD25CC1C115F8E0DF0721F461E019
:100FF00083E0A5D254C1C11529E0D20721F461E0F4
:1010000084E09DD24CC1C1158AE0D80721F461E08B
:1010100085E095D244C1C115EBE0DE0721F461E023
:1010200086E08DD23CC1C034F8E0DF0721F462E0F5
:1010300083E085D234C1C03429E0D20721F462E0D4
:1010400084E07DD22CC1C0348AE0D80721F462E06C
:1010500085E075D224C1C039E8E0DE0721F464E000
:1010600083E06DD21CC1C039F9E0DF0721F464E0F0
:1010700084E065D214C1C0392AE0D20721F464E0CB
:1010800085E05DD20CC1C0398BE0D80721F464E063
:1010900086E055D204C1C03CE8E0DE0721F468E0F8
:1010A00083E04DD2FCC0C03CF9E0DF0721F468E0EA
:1010B00084E045D2F4C0C03A28E0D20771F460E180
:1010C00083E03DD2E0EAF8E084818F7E8483F801FA
:1010D0003481325080EA98E043C0C03AF9E0DF073B
:1010E00021F460E184E02BD2DAC0C03A2AE0D207D2
:1010F00021F460E185E023D2D2C0C03A8BE0D8076A
:1011000021F460E186E01BD2CAC0C03BE8E0DE0704
:1011100021F460E283E013D2C2C0C03BF9E0DF07F4
:1011200021F460E284E00BD2BAC0C03824E0D207D8
:1011300021F460E483E003D2B2C0C03A84E0D8076F
:1011400021F460E485E0FBD1AAC08C818F7E8C8382
:10115000FB0134813250CE01C03AF8E0DF0751F490
:10116000E0E4F6E0268524FDA2C00F2EF1E1FF2E7B
:10117000F02D04C0803B28E0920799F0803AE9E026
:101180009E0751F4E0E6F6E0268524FD95C00F2E7B
:10119000F9E1FF2EF02D17C0803BF9E09F0701F128
:1011A00004C00F2EF5E1FF2EF02D803A2AE09207C1
:1011B00051F4E0E8F6E0868584FD83C00F2EF1E26D
:1011C000FF2EF02D16C0803A9B4099F4E0EAF6E03D
:1011D000868584FF0AC00F2EFDE2FF2EF02D09C088
:1011E0000F2EFDE1FF2EF02D04C00F2EF9E2FF2E91
:1011F000F02DAF2DA695A695A695F0E2AF9FD00154
:101200001124BA5F2F2D277081E090E0022E02C0DA
:10121000880F991F0A94E2F711968C931197323038
:1012200010F430E401C030E0FD017096E20FF11DD2
:101230009FB7F8942081277020832081232B20835F
:101240009FBF15968C938D81806C8D83F80184816E
:101250008D7F813021F48D8182608D8303C08D81EB
:101260008D7F8D83F8018581882321F08D818460B5
:101270008D8303C08D818B7F8D83F80140815181E7
:101280006281738100E814E82EE130E0CE0131DEA6
:101290008C8188608C838C8180618C8317C08C8169
:1012A0008F7E8C83F80134813250CE0163CF0F2EB4
:1012B000F5E1FF2EF02D62CF0F2EFDE1FF2EF02D78
:1012C00082CF0F2EF5E2FF2EF02D93CFDF91CF913D
:1012D0001F910F91FF900895803A28E0920721F422
:1012E00060E183E02CC10895803B28E0920721F45F
:1012F00060E283E024C10895803A29E0920721F456
:1013000060E184E01CC10895803B29E0920721F44C
:1013100060E284E014C10895803A2AE0920721F443
:1013200060E185E00CC10895803A9B4019F460E1CA
:1013300086E005C108950F931F93CF93DF9300D0EC
:1013400000D0CDB7DEB709831A832B833C834D834E
:101350001E82BE016F5F7F4FFDDD2696CDBFDEBFD3
:10136000DF91CF911F910F910895FB018081E82FAC
:10137000E695E695E69540E2E49FF0011124FA5FD8
:10138000877021E030E0A90102C0440F551F8A9503
:10139000E2F746830895FB018081E82FE695E69504
:1013A000E69540E2E49FF0011124FA5F877021E0A6
:1013B00030E0A90102C0440F551F8A95E2F745832A
:1013C00008958093CC229093CD22089520E8829FA7
:1013D000C0011124FC01E60FF11D8091CC229091F7
:1013E000CD22E80FF91F4083089520E8829FC001B5
:1013F0001124FC01E60FF11D8091CC229091CD22A9
:10140000E80FF91F80810895FF920F931F93CF93E8
:10141000DF93E42FF0E0E80FF11DE138F10514F05F
:1014200040E8481B442309F459C0C62FC695C69509
:10143000C695EC2FF0E0F195E195F109EE0FFF1F55
:10144000EE0FFF1FEE0FFF1FDF01A60FB11DBD0145
:10145000E1E0F0E0DF0102C0AA0FBB1F6A95E2F7EE
:101460000A2F213049F068F0223009F037C0D42F1C
:10147000FF24FA94F80E26C0D42FFF24FA94F80E15
:1014800007C0D42FFF24FA94F80E0A2F00950DC040
:101490001F2D1D0F612F8C2F0ADB482F402B612F32
:1014A0008C2FD7D9D150A1F719C01F2D1D0F612F37
:1014B0008C2FFDDA482F4023612F8C2FCAD9D150B1
:1014C000A1F70CC01F2D1D0F612F8C2FF0DA482FB4
:1014D0004027612F8C2FBDD9D150A1F7DF91CF913B
:1014E0001F910F91FF900895FF920F931F93CF9339
:1014F000DF93D82F142F222361F0C22FFF24FA94F8
:10150000F60E6F2D6C0F202F412F8D2F7DDFC150D8
:10151000C1F7DF91CF911F910F91FF9008958FEF49
:1015200080937000809371008093720080937300A9
:1015300080937400809375008093760008959FB720
:10154000F894E82FF0E0E059FF4F60958081682320
:1015500060839FBF0895AF92BF92CF92DF92EF92C8
:10156000FF920F931F93CF93DF93C82FD62EA42EF5
:10157000790100E0F901248143816A2D8D2DB4DFCA
:10158000F7019081911139C08381A82FA695A69566
:10159000A695877009F0AF5FF701C480AC9DD001BC
:1015A0001124EC2FF0E0E7018D81E81BF109AE9FDB
:1015B0009001AF9F300DBE9F300D11240980DA815C
:1015C000C02DC20FD31FF701B380BB2099F000E0FC
:1015D00010E0812F8D0D912F977019F4FE01049169
:1015E000219600231CF441E06A2D24DA000F1F5FCE
:1015F0001B11EFCFA394CA9431F7DF91CF911F91C4
:101600000F91FF90EF90DF90CF90BF90AF90089533
:10161000DF92EF92FF920F931F93CF93DF93E42E0D
:101620008901EC01F62ED62E89918A3031F4F80129
:1016300084818F5FE80EFD2C09C08D3039F0980150
:101640004E2D6F2D88DFF8018381F80E888181117E
:10165000EBCFDF91CF911F910F91FF90EF90DF9033
:101660000895CF93DF93FC01709620E030E0C62F01
:10167000D0E0DE01022E02C0B595A7950A94E2F7EC
:10168000A0FD50832F5F3F4F31962830310589F7F9
:1016900040FF0AC041FF03C0FC01658302C0FC019A
:1016A0006683FC01618302C0FC016283DF91CF91FC
:1016B000089543E050E061E080EE97E0D2DF43E040
:1016C00050E062E080EE97E0CCDF43E050E060E184
:1016D00080E696E0C6DF41E050E460E280E696E016
:1016E000C0DF40E05BE160E280E896E0BADF40E026
:1016F0005BE162E080EA96E0B4DF40E05BE164E059
:1017000080EA96E0AEDF43E050E062E080E696E0FB
:10171000A8DF43E050E068E080E696E0A2DF43E027
:1017200050E068E080EA96E09CDF43E050E061E052
:1017300080E696E096DF43E050E068E080E096E0E7
:1017400090DF41E050E060E180E896E08ADF43E02E
:1017500050E062E080E696E084DF43E050E068E03D
:1017600080E696E07EDF40E050E064E080E696E0D0
:1017700078DF43E050E060E180EA96E072DF40E02D
:1017800050E061E080E096E06CDF40E050E064E033
:1017900080E096E066DF40E050E062E080E296E0C4
:1017A00060DF43E050E068E080E496E05ADF40E02C
:1017B00050E064E080E496E054DF43E050E068E00D
:1017C00080E696E04EDF40E050E064E080E696E0A0
:1017D00048DF43E050E068E080E896E042DF40E028
:1017E00050E064E080E896E03CCF0895CF93DF932B
:1017F000CDB7DEB7CE56D109CDBFDEBF5ADF8FDE03
:10180000D6D867E070E280EA98E05FDA80E1E0E84D
:10181000F6E0858384E6EEE0F0E2DE0111960190C9
:101820000D928A95E1F720E030E240E061E082E746
:1018300090E2EEDE20E030E244E161E08BE790E20E
:10184000E7DE80EA98E035D98D3009F078C07E0176
:1018500085E6E80EF11C0F2EFAE0DF2EF02D0F2E9C
:10186000F5E89F2EF02D0F2EF5E4AF2EF02DBB24C2
:10187000B394C12C4CC00197A109B1090097A105EF
:10188000B105C9F700E020E240E860E080E02CDE2E
:1018900020E030E240E061E08AE890E2B9DE10E06A
:1018A00080EA98E006D9F701E10FF11D80831F5F00
:1018B0008D30B1F700E020E240E860E080E014DE27
:1018C0009981F7018081981308C020E030E240E060
:1018D00061E08FE990E29CDE15C020E030E240E05C
:1018E00061E081EB90E294DE20E030E24D2D61E09A
:1018F00081EC90E28DDE20E030E244E161E08BE7B4
:1019000090E286DE80EA98E0D4D88D30B9F4F70111
:101910008D2D11928A95E9F700E020E240E860E021
:1019200080E0E2DD20E030E240E061E0CE010196BF
:101930006FDE892D9A2DAB2DBC2D9DCFFFCFFFCF14
:10194000A1E21A2EAA1BBB1BFD010DC0AA1FBB1FC3
:10195000EE1FFF1FA217B307E407F50720F0A21B35
:10196000B30BE40BF50B661F771F881F991F1A94A2
:1019700069F760957095809590959B01AC01BD01CC
:08198000CF010895F894FFCF98
:1019880000FC010607207D802500000300003600CA
:1019980000000000000000003634000000000000D5
:1019A80000003634370000000000000036343739B4
:1019B8000000000000003634373931000000000014
:1019C8003634373931320000000036343739313295
:1019D80035000000363437393132353000003634BE
:1019E80037393132353032003634373931323530E3
:1019F800323657656C636F6D65210050726573737D
:101A080020656E7465722E2E2E00456E74657220E8
:101A1800746865206E756D626572732E2E2E00597E
:101A28006F7520776F6E207468652067616D65211A
:101A380000496E636F72726563742C2067616D650F
:0C1A4800007265737461727465642100A3
:00000001FF
